{
  "_format": "hh-sol-artifact-1",
  "contractName": "CheeRainNFT",
  "sourceName": "contracts/CheeRainNFT.sol",
  "abi": [
    {
      "inputs": [],
      "stateMutability": "nonpayable",
      "type": "constructor"
    },
    {
      "inputs": [
        {
          "internalType": "address",
          "name": "sender",
          "type": "address"
        },
        {
          "internalType": "uint256",
          "name": "tokenId",
          "type": "uint256"
        },
        {
          "internalType": "address",
          "name": "owner",
          "type": "address"
        }
      ],
      "name": "ERC721IncorrectOwner",
      "type": "error"
    },
    {
      "inputs": [
        {
          "internalType": "address",
          "name": "operator",
          "type": "address"
        },
        {
          "internalType": "uint256",
          "name": "tokenId",
          "type": "uint256"
        }
      ],
      "name": "ERC721InsufficientApproval",
      "type": "error"
    },
    {
      "inputs": [
        {
          "internalType": "address",
          "name": "approver",
          "type": "address"
        }
      ],
      "name": "ERC721InvalidApprover",
      "type": "error"
    },
    {
      "inputs": [
        {
          "internalType": "address",
          "name": "operator",
          "type": "address"
        }
      ],
      "name": "ERC721InvalidOperator",
      "type": "error"
    },
    {
      "inputs": [
        {
          "internalType": "address",
          "name": "owner",
          "type": "address"
        }
      ],
      "name": "ERC721InvalidOwner",
      "type": "error"
    },
    {
      "inputs": [
        {
          "internalType": "address",
          "name": "receiver",
          "type": "address"
        }
      ],
      "name": "ERC721InvalidReceiver",
      "type": "error"
    },
    {
      "inputs": [
        {
          "internalType": "address",
          "name": "sender",
          "type": "address"
        }
      ],
      "name": "ERC721InvalidSender",
      "type": "error"
    },
    {
      "inputs": [
        {
          "internalType": "uint256",
          "name": "tokenId",
          "type": "uint256"
        }
      ],
      "name": "ERC721NonexistentToken",
      "type": "error"
    },
    {
      "inputs": [
        {
          "internalType": "address",
          "name": "owner",
          "type": "address"
        }
      ],
      "name": "OwnableInvalidOwner",
      "type": "error"
    },
    {
      "inputs": [
        {
          "internalType": "address",
          "name": "account",
          "type": "address"
        }
      ],
      "name": "OwnableUnauthorizedAccount",
      "type": "error"
    },
    {
      "anonymous": false,
      "inputs": [
        {
          "indexed": true,
          "internalType": "address",
          "name": "owner",
          "type": "address"
        },
        {
          "indexed": true,
          "internalType": "address",
          "name": "approved",
          "type": "address"
        },
        {
          "indexed": true,
          "internalType": "uint256",
          "name": "tokenId",
          "type": "uint256"
        }
      ],
      "name": "Approval",
      "type": "event"
    },
    {
      "anonymous": false,
      "inputs": [
        {
          "indexed": true,
          "internalType": "address",
          "name": "owner",
          "type": "address"
        },
        {
          "indexed": true,
          "internalType": "address",
          "name": "operator",
          "type": "address"
        },
        {
          "indexed": false,
          "internalType": "bool",
          "name": "approved",
          "type": "bool"
        }
      ],
      "name": "ApprovalForAll",
      "type": "event"
    },
    {
      "anonymous": false,
      "inputs": [
        {
          "indexed": false,
          "internalType": "uint256",
          "name": "_fromTokenId",
          "type": "uint256"
        },
        {
          "indexed": false,
          "internalType": "uint256",
          "name": "_toTokenId",
          "type": "uint256"
        }
      ],
      "name": "BatchMetadataUpdate",
      "type": "event"
    },
    {
      "anonymous": false,
      "inputs": [
        {
          "indexed": false,
          "internalType": "uint256",
          "name": "_tokenId",
          "type": "uint256"
        }
      ],
      "name": "MetadataUpdate",
      "type": "event"
    },
    {
      "anonymous": false,
      "inputs": [
        {
          "indexed": true,
          "internalType": "uint256",
          "name": "tokenId",
          "type": "uint256"
        },
        {
          "indexed": true,
          "internalType": "address",
          "name": "creator",
          "type": "address"
        },
        {
          "indexed": false,
          "internalType": "string",
          "name": "playerName",
          "type": "string"
        },
        {
          "indexed": false,
          "internalType": "string",
          "name": "title",
          "type": "string"
        },
        {
          "indexed": false,
          "internalType": "uint256",
          "name": "paymentAmount",
          "type": "uint256"
        },
        {
          "indexed": false,
          "internalType": "bool",
          "name": "isVenueAttendee",
          "type": "bool"
        }
      ],
      "name": "NFTMinted",
      "type": "event"
    },
    {
      "anonymous": false,
      "inputs": [
        {
          "indexed": true,
          "internalType": "address",
          "name": "previousOwner",
          "type": "address"
        },
        {
          "indexed": true,
          "internalType": "address",
          "name": "newOwner",
          "type": "address"
        }
      ],
      "name": "OwnershipTransferred",
      "type": "event"
    },
    {
      "anonymous": false,
      "inputs": [
        {
          "indexed": true,
          "internalType": "address",
          "name": "from",
          "type": "address"
        },
        {
          "indexed": true,
          "internalType": "address",
          "name": "to",
          "type": "address"
        },
        {
          "indexed": true,
          "internalType": "uint256",
          "name": "tokenId",
          "type": "uint256"
        }
      ],
      "name": "Transfer",
      "type": "event"
    },
    {
      "inputs": [
        {
          "internalType": "address",
          "name": "to",
          "type": "address"
        },
        {
          "internalType": "uint256",
          "name": "tokenId",
          "type": "uint256"
        }
      ],
      "name": "approve",
      "outputs": [],
      "stateMutability": "nonpayable",
      "type": "function"
    },
    {
      "inputs": [
        {
          "internalType": "address",
          "name": "owner",
          "type": "address"
        }
      ],
      "name": "balanceOf",
      "outputs": [
        {
          "internalType": "uint256",
          "name": "",
          "type": "uint256"
        }
      ],
      "stateMutability": "view",
      "type": "function"
    },
    {
      "inputs": [
        {
          "internalType": "uint256",
          "name": "tokenId",
          "type": "uint256"
        }
      ],
      "name": "getApproved",
      "outputs": [
        {
          "internalType": "address",
          "name": "",
          "type": "address"
        }
      ],
      "stateMutability": "view",
      "type": "function"
    },
    {
      "inputs": [
        {
          "internalType": "uint256",
          "name": "tokenId",
          "type": "uint256"
        }
      ],
      "name": "getNFTMetadata",
      "outputs": [
        {
          "components": [
            {
              "internalType": "string",
              "name": "title",
              "type": "string"
            },
            {
              "internalType": "string",
              "name": "message",
              "type": "string"
            },
            {
              "internalType": "string",
              "name": "playerName",
              "type": "string"
            },
            {
              "internalType": "string",
              "name": "imageUrl",
              "type": "string"
            },
            {
              "internalType": "address",
              "name": "creator",
              "type": "address"
            },
            {
              "internalType": "uint256",
              "name": "paymentAmount",
              "type": "uint256"
            },
            {
              "internalType": "uint256",
              "name": "createdAt",
              "type": "uint256"
            },
            {
              "internalType": "bool",
              "name": "isVenueAttendee",
              "type": "bool"
            }
          ],
          "internalType": "struct CheeRainNFT.NFTMetadata",
          "name": "",
          "type": "tuple"
        }
      ],
      "stateMutability": "view",
      "type": "function"
    },
    {
      "inputs": [
        {
          "internalType": "string",
          "name": "playerName",
          "type": "string"
        }
      ],
      "name": "getNFTsByPlayer",
      "outputs": [
        {
          "internalType": "uint256[]",
          "name": "",
          "type": "uint256[]"
        }
      ],
      "stateMutability": "view",
      "type": "function"
    },
    {
      "inputs": [
        {
          "internalType": "address",
          "name": "user",
          "type": "address"
        }
      ],
      "name": "getNFTsByUser",
      "outputs": [
        {
          "internalType": "uint256[]",
          "name": "",
          "type": "uint256[]"
        }
      ],
      "stateMutability": "view",
      "type": "function"
    },
    {
      "inputs": [
        {
          "internalType": "address",
          "name": "owner",
          "type": "address"
        },
        {
          "internalType": "address",
          "name": "operator",
          "type": "address"
        }
      ],
      "name": "isApprovedForAll",
      "outputs": [
        {
          "internalType": "bool",
          "name": "",
          "type": "bool"
        }
      ],
      "stateMutability": "view",
      "type": "function"
    },
    {
      "inputs": [
        {
          "internalType": "address",
          "name": "to",
          "type": "address"
        },
        {
          "internalType": "string",
          "name": "title",
          "type": "string"
        },
        {
          "internalType": "string",
          "name": "message",
          "type": "string"
        },
        {
          "internalType": "string",
          "name": "playerName",
          "type": "string"
        },
        {
          "internalType": "string",
          "name": "imageUrl",
          "type": "string"
        },
        {
          "internalType": "uint256",
          "name": "paymentAmount",
          "type": "uint256"
        },
        {
          "internalType": "bool",
          "name": "isVenueAttendee",
          "type": "bool"
        }
      ],
      "name": "mintNFT",
      "outputs": [
        {
          "internalType": "uint256",
          "name": "",
          "type": "uint256"
        }
      ],
      "stateMutability": "nonpayable",
      "type": "function"
    },
    {
      "inputs": [],
      "name": "name",
      "outputs": [
        {
          "internalType": "string",
          "name": "",
          "type": "string"
        }
      ],
      "stateMutability": "view",
      "type": "function"
    },
    {
      "inputs": [
        {
          "internalType": "uint256",
          "name": "",
          "type": "uint256"
        }
      ],
      "name": "nftMetadata",
      "outputs": [
        {
          "internalType": "string",
          "name": "title",
          "type": "string"
        },
        {
          "internalType": "string",
          "name": "message",
          "type": "string"
        },
        {
          "internalType": "string",
          "name": "playerName",
          "type": "string"
        },
        {
          "internalType": "string",
          "name": "imageUrl",
          "type": "string"
        },
        {
          "internalType": "address",
          "name": "creator",
          "type": "address"
        },
        {
          "internalType": "uint256",
          "name": "paymentAmount",
          "type": "uint256"
        },
        {
          "internalType": "uint256",
          "name": "createdAt",
          "type": "uint256"
        },
        {
          "internalType": "bool",
          "name": "isVenueAttendee",
          "type": "bool"
        }
      ],
      "stateMutability": "view",
      "type": "function"
    },
    {
      "inputs": [],
      "name": "owner",
      "outputs": [
        {
          "internalType": "address",
          "name": "",
          "type": "address"
        }
      ],
      "stateMutability": "view",
      "type": "function"
    },
    {
      "inputs": [
        {
          "internalType": "uint256",
          "name": "tokenId",
          "type": "uint256"
        }
      ],
      "name": "ownerOf",
      "outputs": [
        {
          "internalType": "address",
          "name": "",
          "type": "address"
        }
      ],
      "stateMutability": "view",
      "type": "function"
    },
    {
      "inputs": [
        {
          "internalType": "string",
          "name": "",
          "type": "string"
        },
        {
          "internalType": "uint256",
          "name": "",
          "type": "uint256"
        }
      ],
      "name": "playerNFTs",
      "outputs": [
        {
          "internalType": "uint256",
          "name": "",
          "type": "uint256"
        }
      ],
      "stateMutability": "view",
      "type": "function"
    },
    {
      "inputs": [],
      "name": "renounceOwnership",
      "outputs": [],
      "stateMutability": "nonpayable",
      "type": "function"
    },
    {
      "inputs": [
        {
          "internalType": "address",
          "name": "from",
          "type": "address"
        },
        {
          "internalType": "address",
          "name": "to",
          "type": "address"
        },
        {
          "internalType": "uint256",
          "name": "tokenId",
          "type": "uint256"
        }
      ],
      "name": "safeTransferFrom",
      "outputs": [],
      "stateMutability": "nonpayable",
      "type": "function"
    },
    {
      "inputs": [
        {
          "internalType": "address",
          "name": "from",
          "type": "address"
        },
        {
          "internalType": "address",
          "name": "to",
          "type": "address"
        },
        {
          "internalType": "uint256",
          "name": "tokenId",
          "type": "uint256"
        },
        {
          "internalType": "bytes",
          "name": "data",
          "type": "bytes"
        }
      ],
      "name": "safeTransferFrom",
      "outputs": [],
      "stateMutability": "nonpayable",
      "type": "function"
    },
    {
      "inputs": [
        {
          "internalType": "address",
          "name": "operator",
          "type": "address"
        },
        {
          "internalType": "bool",
          "name": "approved",
          "type": "bool"
        }
      ],
      "name": "setApprovalForAll",
      "outputs": [],
      "stateMutability": "nonpayable",
      "type": "function"
    },
    {
      "inputs": [
        {
          "internalType": "bytes4",
          "name": "interfaceId",
          "type": "bytes4"
        }
      ],
      "name": "supportsInterface",
      "outputs": [
        {
          "internalType": "bool",
          "name": "",
          "type": "bool"
        }
      ],
      "stateMutability": "view",
      "type": "function"
    },
    {
      "inputs": [],
      "name": "symbol",
      "outputs": [
        {
          "internalType": "string",
          "name": "",
          "type": "string"
        }
      ],
      "stateMutability": "view",
      "type": "function"
    },
    {
      "inputs": [
        {
          "internalType": "uint256",
          "name": "tokenId",
          "type": "uint256"
        }
      ],
      "name": "tokenURI",
      "outputs": [
        {
          "internalType": "string",
          "name": "",
          "type": "string"
        }
      ],
      "stateMutability": "view",
      "type": "function"
    },
    {
      "inputs": [],
      "name": "totalSupply",
      "outputs": [
        {
          "internalType": "uint256",
          "name": "",
          "type": "uint256"
        }
      ],
      "stateMutability": "view",
      "type": "function"
    },
    {
      "inputs": [
        {
          "internalType": "address",
          "name": "from",
          "type": "address"
        },
        {
          "internalType": "address",
          "name": "to",
          "type": "address"
        },
        {
          "internalType": "uint256",
          "name": "tokenId",
          "type": "uint256"
        }
      ],
      "name": "transferFrom",
      "outputs": [],
      "stateMutability": "nonpayable",
      "type": "function"
    },
    {
      "inputs": [
        {
          "internalType": "address",
          "name": "newOwner",
          "type": "address"
        }
      ],
      "name": "transferOwnership",
      "outputs": [],
      "stateMutability": "nonpayable",
      "type": "function"
    },
    {
      "inputs": [
        {
          "internalType": "address",
          "name": "",
          "type": "address"
        },
        {
          "internalType": "uint256",
          "name": "",
          "type": "uint256"
        }
      ],
      "name": "userNFTs",
      "outputs": [
        {
          "internalType": "uint256",
          "name": "",
          "type": "uint256"
        }
      ],
      "stateMutability": "view",
      "type": "function"
    }
  ],
  "bytecode": "0x60806040523480156200001157600080fd5b50336040518060400160405280601581526020017f436865655261696e20537570706f7274204361726400000000000000000000008152506040518060400160405280600881526020016721a422a2a920a4a760c11b81525081600090816200007b9190620001ca565b5060016200008a8282620001ca565b5050506001600160a01b038116620000bc57604051631e4fbdf760e01b81526000600482015260240160405180910390fd5b620000c781620000d3565b50600060085562000296565b600780546001600160a01b038381166001600160a01b0319831681179093556040519116919082907f8be0079c531659141344cd1fd0a4f28419497f9722a3daafe3b4186f6b6457e090600090a35050565b634e487b7160e01b600052604160045260246000fd5b600181811c908216806200015057607f821691505b6020821081036200017157634e487b7160e01b600052602260045260246000fd5b50919050565b601f821115620001c557600081815260208120601f850160051c81016020861015620001a05750805b601f850160051c820191505b81811015620001c157828155600101620001ac565b5050505b505050565b81516001600160401b03811115620001e657620001e662000125565b620001fe81620001f784546200013b565b8462000177565b602080601f8311600181146200023657600084156200021d5750858301515b600019600386901b1c1916600185901b178555620001c1565b600085815260208120601f198616915b82811015620002675788860151825594840194600190910190840162000246565b5085821015620002865787850151600019600388901b60f8161c191681555b5050505050600190811b01905550565b61234080620002a66000396000f3fe608060405234801561001057600080fd5b50600436106101585760003560e01c80636352211e116100c357806395d89b411161007c57806395d89b4114610304578063a22cb4651461030c578063b88d4fde1461031f578063c87b56dd14610332578063e985e9c514610345578063f2fde38b1461035857600080fd5b80636352211e146102925780636be9a6f1146102a557806370a08231146102c5578063715018a6146102d85780638da5cb5b146102e0578063926e5ee1146102f157600080fd5b806323b872dd1161011557806323b872dd1461020c578063291c73c31461021f57806342842e0e146102325780634954101514610245578063542e60471461026c5780635c69ec081461027f57600080fd5b806301ffc9a71461015d57806306fdde0314610185578063081812fc1461019a578063095ea7b3146101c5578063180875b0146101da57806318160ddd146101fa575b600080fd5b61017061016b366004611aec565b61036b565b60405190151581526020015b60405180910390f35b61018d61037c565b60405161017c9190611b60565b6101ad6101a8366004611b73565b61040e565b6040516001600160a01b03909116815260200161017c565b6101d86101d3366004611ba8565b610437565b005b6101ed6101e8366004611c7e565b610446565b60405161017c9190611cb3565b6008545b60405190815260200161017c565b6101d861021a366004611cf7565b6104b6565b6101fe61022d366004611ba8565b610546565b6101d8610240366004611cf7565b610577565b610258610253366004611b73565b610597565b60405161017c989796959493929190611d33565b6101fe61027a366004611db6565b610805565b6101ed61028d366004611dfb565b610830565b6101ad6102a0366004611b73565b61089a565b6102b86102b3366004611b73565b6108a5565b60405161017c9190611e16565b6101fe6102d3366004611dfb565b610bef565b6101d8610c37565b6007546001600160a01b03166101ad565b6101fe6102ff366004611eec565b610c4b565b61018d610f41565b6101d861031a366004611fc4565b610f50565b6101d861032d366004611ff7565b610f5b565b61018d610340366004611b73565b610f73565b610170610353366004612073565b61129b565b6101d8610366366004611dfb565b6112c9565b600061037682611307565b92915050565b60606000805461038b9061209d565b80601f01602080910402602001604051908101604052809291908181526020018280546103b79061209d565b80156104045780601f106103d957610100808354040283529160200191610404565b820191906000526020600020905b8154815290600101906020018083116103e757829003601f168201915b5050505050905090565b60006104198261132c565b506000828152600460205260409020546001600160a01b0316610376565b610442828233611365565b5050565b6060600b8260405161045891906120d7565b90815260408051918290036020908101832080548083028501830190935282845291908301828280156104aa57602002820191906000526020600020905b815481526020019060010190808311610496575b50505050509050919050565b6001600160a01b0382166104e557604051633250574960e11b8152600060048201526024015b60405180910390fd5b60006104f2838333611372565b9050836001600160a01b0316816001600160a01b031614610540576040516364283d7b60e01b81526001600160a01b03808616600483015260248201849052821660448201526064016104dc565b50505050565b600a602052816000526040600020818154811061056257600080fd5b90600052602060002001600091509150505481565b61059283838360405180602001604052806000815250610f5b565b505050565b6009602052600090815260409020805481906105b29061209d565b80601f01602080910402602001604051908101604052809291908181526020018280546105de9061209d565b801561062b5780601f106106005761010080835404028352916020019161062b565b820191906000526020600020905b81548152906001019060200180831161060e57829003601f168201915b5050505050908060010180546106409061209d565b80601f016020809104026020016040519081016040528092919081815260200182805461066c9061209d565b80156106b95780601f1061068e576101008083540402835291602001916106b9565b820191906000526020600020905b81548152906001019060200180831161069c57829003601f168201915b5050505050908060020180546106ce9061209d565b80601f01602080910402602001604051908101604052809291908181526020018280546106fa9061209d565b80156107475780601f1061071c57610100808354040283529160200191610747565b820191906000526020600020905b81548152906001019060200180831161072a57829003601f168201915b50505050509080600301805461075c9061209d565b80601f01602080910402602001604051908101604052809291908181526020018280546107889061209d565b80156107d55780601f106107aa576101008083540402835291602001916107d5565b820191906000526020600020905b8154815290600101906020018083116107b857829003601f168201915b5050505060048301546005840154600685015460079095015493946001600160a01b039092169390925060ff1688565b8151602081840181018051600b82529282019185019190912091905280548290811061056257600080fd5b6001600160a01b0381166000908152600a60209081526040918290208054835181840281018401909452808452606093928301828280156104aa57602002820191906000526020600020908154815260200190600101908083116104965750505050509050919050565b60006103768261132c565b6108f86040518061010001604052806060815260200160608152602001606081526020016060815260200160006001600160a01b0316815260200160008152602001600081526020016000151581525090565b6000828152600260205260409020546001600160a01b03166109515760405162461bcd60e51b815260206004820152601260248201527113919508191bd95cc81b9bdd08195e1a5cdd60721b60448201526064016104dc565b600082815260096020526040908190208151610100810190925280548290829061097a9061209d565b80601f01602080910402602001604051908101604052809291908181526020018280546109a69061209d565b80156109f35780601f106109c8576101008083540402835291602001916109f3565b820191906000526020600020905b8154815290600101906020018083116109d657829003601f168201915b50505050508152602001600182018054610a0c9061209d565b80601f0160208091040260200160405190810160405280929190818152602001828054610a389061209d565b8015610a855780601f10610a5a57610100808354040283529160200191610a85565b820191906000526020600020905b815481529060010190602001808311610a6857829003601f168201915b50505050508152602001600282018054610a9e9061209d565b80601f0160208091040260200160405190810160405280929190818152602001828054610aca9061209d565b8015610b175780601f10610aec57610100808354040283529160200191610b17565b820191906000526020600020905b815481529060010190602001808311610afa57829003601f168201915b50505050508152602001600382018054610b309061209d565b80601f0160208091040260200160405190810160405280929190818152602001828054610b5c9061209d565b8015610ba95780601f10610b7e57610100808354040283529160200191610ba9565b820191906000526020600020905b815481529060010190602001808311610b8c57829003601f168201915b505050918352505060048201546001600160a01b03166020820152600582015460408201526006820154606082015260079091015460ff16151560809091015292915050565b60006001600160a01b038216610c1b576040516322718ad960e21b8152600060048201526024016104dc565b506001600160a01b031660009081526003602052604090205490565b610c3f61146b565b610c496000611498565b565b600080875111610c955760405162461bcd60e51b81526020600482015260156024820152745469746c652063616e6e6f7420626520656d70747960581b60448201526064016104dc565b6000865111610ce65760405162461bcd60e51b815260206004820152601760248201527f4d6573736167652063616e6e6f7420626520656d70747900000000000000000060448201526064016104dc565b6000855111610d375760405162461bcd60e51b815260206004820152601b60248201527f506c61796572206e616d652063616e6e6f7420626520656d707479000000000060448201526064016104dc565b6001600160a01b038816610d8d5760405162461bcd60e51b815260206004820152601960248201527f496e76616c696420726563697069656e7420616464726573730000000000000060448201526064016104dc565b60088054906001906000610da183856120f3565b90915550610db1905089826114ea565b604080516101008101825289815260208082018a90528183018990526060820188905233608083015260a082018790524260c083015285151560e0830152600084815260099091529190912081518190610e0b908261215a565b5060208201516001820190610e20908261215a565b5060408201516002820190610e35908261215a565b5060608201516003820190610e4a908261215a565b5060808201516004820180546001600160a01b0319166001600160a01b0392831617905560a0830151600583015560c0830151600683015560e0909201516007909101805460ff191691151591909117905589166000908152600a602090815260408083208054600181018255908452919092200182905551600b90610ed19088906120d7565b90815260405190819003602090810182208054600181018255600091825291902001829055339082907f7ebd0874dbfcd8028ce479d72770b9c9a57fa1b5847e07ca69337e30e3ccfa8290610f2d908a908d908a908a9061221a565b60405180910390a398975050505050505050565b60606001805461038b9061209d565b610442338383611504565b610f668484846104b6565b61054033858585856115a3565b6000818152600260205260409020546060906001600160a01b0316610fcf5760405162461bcd60e51b815260206004820152601260248201527113919508191bd95cc81b9bdd08195e1a5cdd60721b60448201526064016104dc565b60008281526009602052604080822081516101008101909252805482908290610ff79061209d565b80601f01602080910402602001604051908101604052809291908181526020018280546110239061209d565b80156110705780601f1061104557610100808354040283529160200191611070565b820191906000526020600020905b81548152906001019060200180831161105357829003601f168201915b505050505081526020016001820180546110899061209d565b80601f01602080910402602001604051908101604052809291908181526020018280546110b59061209d565b80156111025780601f106110d757610100808354040283529160200191611102565b820191906000526020600020905b8154815290600101906020018083116110e557829003601f168201915b5050505050815260200160028201805461111b9061209d565b80601f01602080910402602001604051908101604052809291908181526020018280546111479061209d565b80156111945780601f1061116957610100808354040283529160200191611194565b820191906000526020600020905b81548152906001019060200180831161117757829003601f168201915b505050505081526020016003820180546111ad9061209d565b80601f01602080910402602001604051908101604052809291908181526020018280546111d99061209d565b80156112265780601f106111fb57610100808354040283529160200191611226565b820191906000526020600020905b81548152906001019060200180831161120957829003601f168201915b505050918352505060048201546001600160a01b03166020820152600582015460408201526006820154606082015260079091015460ff1615156080909101529050611271836116ce565b8151604051611284929190602001612258565b604051602081830303815290604052915050919050565b6001600160a01b03918216600090815260056020908152604080832093909416825291909152205460ff1690565b6112d161146b565b6001600160a01b0381166112fb57604051631e4fbdf760e01b8152600060048201526024016104dc565b61130481611498565b50565b60006001600160e01b03198216632483248360e11b1480610376575061037682611761565b6000818152600260205260408120546001600160a01b03168061037657604051637e27328960e01b8152600481018490526024016104dc565b61059283838360016117b1565b6000828152600260205260408120546001600160a01b039081169083161561139f5761139f8184866118b7565b6001600160a01b038116156113dd576113bc6000856000806117b1565b6001600160a01b038116600090815260036020526040902080546000190190555b6001600160a01b0385161561140c576001600160a01b0385166000908152600360205260409020805460010190555b60008481526002602052604080822080546001600160a01b0319166001600160a01b0389811691821790925591518793918516917fddf252ad1be2c89b69c2b068fc378daa952ba7f163c4a11628f55a4df523b3ef91a4949350505050565b6007546001600160a01b03163314610c495760405163118cdaa760e01b81523360048201526024016104dc565b600780546001600160a01b038381166001600160a01b0319831681179093556040519116919082907f8be0079c531659141344cd1fd0a4f28419497f9722a3daafe3b4186f6b6457e090600090a35050565b61044282826040518060200160405280600081525061191b565b6001600160a01b03821661153657604051630b61174360e31b81526001600160a01b03831660048201526024016104dc565b6001600160a01b03838116600081815260056020908152604080832094871680845294825291829020805460ff191686151590811790915591519182527f17307eab39ab6107e8899845ad3d59bd9653f200f220920489ca2b5937696c31910160405180910390a3505050565b6001600160a01b0383163b156116c757604051630a85bd0160e11b81526001600160a01b0384169063150b7a02906115e59088908890879087906004016122b0565b6020604051808303816000875af1925050508015611620575060408051601f3d908101601f1916820190925261161d918101906122ed565b60015b611689573d80801561164e576040519150601f19603f3d011682016040523d82523d6000602084013e611653565b606091505b50805160000361168157604051633250574960e11b81526001600160a01b03851660048201526024016104dc565b805160208201fd5b6001600160e01b03198116630a85bd0160e11b146116c557604051633250574960e11b81526001600160a01b03851660048201526024016104dc565b505b5050505050565b606060006116db83611933565b600101905060008167ffffffffffffffff8111156116fb576116fb611bd2565b6040519080825280601f01601f191660200182016040528015611725576020820181803683370190505b5090508181016020015b600019016f181899199a1a9b1b9c1cb0b131b232b360811b600a86061a8153600a850494508461172f57509392505050565b60006001600160e01b031982166380ac58cd60e01b148061179257506001600160e01b03198216635b5e139f60e01b145b8061037657506301ffc9a760e01b6001600160e01b0319831614610376565b80806117c557506001600160a01b03821615155b156118875760006117d58461132c565b90506001600160a01b038316158015906118015750826001600160a01b0316816001600160a01b031614155b80156118145750611812818461129b565b155b1561183d5760405163a9fbf51f60e01b81526001600160a01b03841660048201526024016104dc565b81156118855783856001600160a01b0316826001600160a01b03167f8c5be1e5ebec7d5bd14f71427d1e84f3dd0314c0f7b2291e5b200ac8c7c3b92560405160405180910390a45b505b5050600090815260046020526040902080546001600160a01b0319166001600160a01b0392909216919091179055565b6118c2838383611a0b565b610592576001600160a01b0383166118f057604051637e27328960e01b8152600481018290526024016104dc565b60405163177e802f60e01b81526001600160a01b0383166004820152602481018290526044016104dc565b6119258383611a71565b6105923360008585856115a3565b60008072184f03e93ff9f4daa797ed6e38ed64bf6a1f0160401b83106119725772184f03e93ff9f4daa797ed6e38ed64bf6a1f0160401b830492506040015b6d04ee2d6d415b85acef8100000000831061199e576d04ee2d6d415b85acef8100000000830492506020015b662386f26fc1000083106119bc57662386f26fc10000830492506010015b6305f5e10083106119d4576305f5e100830492506008015b61271083106119e857612710830492506004015b606483106119fa576064830492506002015b600a83106103765760010192915050565b60006001600160a01b03831615801590611a695750826001600160a01b0316846001600160a01b03161480611a455750611a45848461129b565b80611a6957506000828152600460205260409020546001600160a01b038481169116145b949350505050565b6001600160a01b038216611a9b57604051633250574960e11b8152600060048201526024016104dc565b6000611aa983836000611372565b90506001600160a01b03811615610592576040516339e3563760e11b8152600060048201526024016104dc565b6001600160e01b03198116811461130457600080fd5b600060208284031215611afe57600080fd5b8135611b0981611ad6565b9392505050565b60005b83811015611b2b578181015183820152602001611b13565b50506000910152565b60008151808452611b4c816020860160208601611b10565b601f01601f19169290920160200192915050565b602081526000611b096020830184611b34565b600060208284031215611b8557600080fd5b5035919050565b80356001600160a01b0381168114611ba357600080fd5b919050565b60008060408385031215611bbb57600080fd5b611bc483611b8c565b946020939093013593505050565b634e487b7160e01b600052604160045260246000fd5b600067ffffffffffffffff80841115611c0357611c03611bd2565b604051601f8501601f19908116603f01168101908282118183101715611c2b57611c2b611bd2565b81604052809350858152868686011115611c4457600080fd5b858560208301376000602087830101525050509392505050565b600082601f830112611c6f57600080fd5b611b0983833560208501611be8565b600060208284031215611c9057600080fd5b813567ffffffffffffffff811115611ca757600080fd5b611a6984828501611c5e565b6020808252825182820181905260009190848201906040850190845b81811015611ceb57835183529284019291840191600101611ccf565b50909695505050505050565b600080600060608486031215611d0c57600080fd5b611d1584611b8c565b9250611d2360208501611b8c565b9150604084013590509250925092565b6000610100808352611d478184018c611b34565b90508281036020840152611d5b818b611b34565b90508281036040840152611d6f818a611b34565b90508281036060840152611d838189611b34565b6001600160a01b03979097166080840152505060a081019390935260c0830191909152151560e090910152949350505050565b60008060408385031215611dc957600080fd5b823567ffffffffffffffff811115611de057600080fd5b611dec85828601611c5e565b95602094909401359450505050565b600060208284031215611e0d57600080fd5b611b0982611b8c565b6020815260008251610100806020850152611e35610120850183611b34565b91506020850151601f1980868503016040870152611e538483611b34565b93506040870151915080868503016060870152611e708483611b34565b9350606087015191508086850301608087015250611e8e8382611b34565b9250506080850151611eab60a08601826001600160a01b03169052565b5060a085015160c085015260c085015160e085015260e0850151611ed28286018215159052565b5090949350505050565b80358015158114611ba357600080fd5b600080600080600080600060e0888a031215611f0757600080fd5b611f1088611b8c565b9650602088013567ffffffffffffffff80821115611f2d57600080fd5b611f398b838c01611c5e565b975060408a0135915080821115611f4f57600080fd5b611f5b8b838c01611c5e565b965060608a0135915080821115611f7157600080fd5b611f7d8b838c01611c5e565b955060808a0135915080821115611f9357600080fd5b50611fa08a828b01611c5e565b93505060a08801359150611fb660c08901611edc565b905092959891949750929550565b60008060408385031215611fd757600080fd5b611fe083611b8c565b9150611fee60208401611edc565b90509250929050565b6000806000806080858703121561200d57600080fd5b61201685611b8c565b935061202460208601611b8c565b925060408501359150606085013567ffffffffffffffff81111561204757600080fd5b8501601f8101871361205857600080fd5b61206787823560208401611be8565b91505092959194509250565b6000806040838503121561208657600080fd5b61208f83611b8c565b9150611fee60208401611b8c565b600181811c908216806120b157607f821691505b6020821081036120d157634e487b7160e01b600052602260045260246000fd5b50919050565b600082516120e9818460208701611b10565b9190910192915050565b8082018082111561037657634e487b7160e01b600052601160045260246000fd5b601f82111561059257600081815260208120601f850160051c8101602086101561213b5750805b601f850160051c820191505b818110156116c557828155600101612147565b815167ffffffffffffffff81111561217457612174611bd2565b61218881612182845461209d565b84612114565b602080601f8311600181146121bd57600084156121a55750858301515b600019600386901b1c1916600185901b1785556116c5565b600085815260208120601f198616915b828110156121ec578886015182559484019460019091019084016121cd565b508582101561220a5787850151600019600388901b60f8161c191681555b5050505050600190811b01905550565b60808152600061222d6080830187611b34565b828103602084015261223f8187611b34565b6040840195909552505090151560609091015292915050565b6d436865655261696e204e4654202360901b81526000835161228181600e850160208801611b10565b6201016960ed1b600e9184019182015283516122a4816011840160208801611b10565b01601101949350505050565b6001600160a01b03858116825284166020820152604081018390526080606082018190526000906122e390830184611b34565b9695505050505050565b6000602082840312156122ff57600080fd5b8151611b0981611ad656fea2646970667358221220345c215e5c6cd239e7cfa7076a6d48d39baaa22b97731dff7c7f1270ca471ff964736f6c63430008140033",
  "linkReferences": {},
  "deployedLinkReferences": {}
}